:1000000009C021C020C0E0C01EC01DC01CC01BC054
:100010001AC019C011241FBECFE9CDBF10E0A0E661
:10002000B0E0EEE3F3E002C005900D92A436B10714
:10003000D9F720E0A4E6B0E001C01D92A936B207CE
:10004000E1F7E7D07AC1DCCF87FF0BC08F77833031
:1000500081F0813071F1823071F1882371F18FEF7D
:1000600009C0882321F0813029F442E004C041E036
:1000700002C083E040E021E030E0F90102C0EE0F71
:10008000FF1F8A95E2F7CF01442339F02FB54130A5
:1000900011F42F7301C02F7C2FBD2FB7F89498B3A4
:1000A000611103C08095892301C0892B88BB2FBFB4
:1000B000089582E0DFCF84E0DDCF85E0DBCF87FFEE
:1000C00012C08F77833041F0813041F0823041F0AF
:1000D000882341F08FEF07C083E005C082E003C0B2
:1000E00084E001C085E021E030E0A90102C0440FB6
:1000F000551F8A95E2F7CA012FB7F894662351F08D
:10010000623081F497B3382F3095932397BB98B31F
:10011000892B06C097B38095982397BB98B3892302
:1001200088BB03C097B3892B87BB2FBF08958D3F32
:100130002FE3920768F068EE73E0EBD02AE439E031
:100140006150710920F0C9010197F1F7F9CF0895C5
:100150008930910528F1AC01440F551F9C0136955B
:10016000279536952795240F351F23513109AC016A
:1001700073E0569547957A95E1F7240F351FAC014A
:10018000E6E056954795EA95E1F7240F351F880F6D
:10019000892F881F990B9195820F931F0197F1F773
:1001A0000895813029F0823039F4C298C39A02C090
:1001B000C29AC398C49803C0C298C398C49A809145
:1001C000620090916300B3CF1F920F920FB60F920F
:1001D00011248F939F93AF93BF938091640090916C
:1001E0006500A0916600B09167000196A11DB11D48
:1001F0008093640090936500A0936600B0936700BD
:10020000BF91AF919F918F910F900FBE0F901F9054
:1002100018958FB583608FBD89B7826089BF83B71A
:10022000826083BF12BE789486E886B9B99ABA9A7A
:10023000BB9ABC9A8FB7F894B898C0988FBF8FB507
:100240008F7C8FBDC198BB24B394C8E7D5E000E98B
:1002500011E094E6E92EF12C82E0C82ED12C8FB566
:100260008F738FBDB09BB092680080916800813021
:10027000B1F797DF82E095DF83E093DF8091620042
:1002800090916300893725E0920758F02091600033
:1002900030916100821B930B909363008093620006
:1002A00004C0D0936300C09362008091620090917B
:1002B00063008E309C4940F48FB58F7C8FBDC19A0E
:1002C0001093610000936000809162009091630040
:1002D00080329E4440F48FB58F7C8FBDC198F092E0
:1002E0006100E09260008091620090916300803A2A
:1002F0002FE0920708F0B3CFD0926100C092600067
:100300008034964008F0ABCF8FB58F7C8FBDC19AFB
:10031000A3CFAA1BBB1B51E107C0AA1FBB1FA61777
:10032000B70710F0A61BB70B881F991F5A95A9F79E
:0E03300080959095BC01CD010895F894FFCF03
:04033E000500409CDA
:00000001FF
